{
  "contractName": "SlotMachine",
  "abi": [
    {
      "constant": true,
      "inputs": [],
      "name": "slotMachineFunds",
      "outputs": [
        {
          "name": "",
          "type": "address"
        }
      ],
      "payable": false,
      "stateMutability": "view",
      "type": "function"
    },
    {
      "constant": true,
      "inputs": [],
      "name": "coinPrice",
      "outputs": [
        {
          "name": "",
          "type": "uint256"
        }
      ],
      "payable": false,
      "stateMutability": "view",
      "type": "function"
    },
    {
      "inputs": [],
      "payable": false,
      "stateMutability": "nonpayable",
      "type": "constructor"
    },
    {
      "payable": true,
      "stateMutability": "payable",
      "type": "fallback"
    },
    {
      "anonymous": false,
      "inputs": [
        {
          "indexed": false,
          "name": "sender",
          "type": "address"
        },
        {
          "indexed": false,
          "name": "rand1",
          "type": "uint256"
        },
        {
          "indexed": false,
          "name": "rand2",
          "type": "uint256"
        },
        {
          "indexed": false,
          "name": "rand3",
          "type": "uint256"
        }
      ],
      "name": "Rolled",
      "type": "event"
    },
    {
      "constant": false,
      "inputs": [],
      "name": "oneRoll",
      "outputs": [],
      "payable": true,
      "stateMutability": "payable",
      "type": "function"
    },
    {
      "constant": true,
      "inputs": [],
      "name": "contractBalance",
      "outputs": [
        {
          "name": "",
          "type": "uint256"
        }
      ],
      "payable": false,
      "stateMutability": "view",
      "type": "function"
    },
    {
      "constant": true,
      "inputs": [
        {
          "name": "rand1",
          "type": "uint256"
        },
        {
          "name": "rand2",
          "type": "uint256"
        },
        {
          "name": "rand3",
          "type": "uint256"
        }
      ],
      "name": "calculatePrize",
      "outputs": [
        {
          "name": "",
          "type": "uint256"
        }
      ],
      "payable": false,
      "stateMutability": "view",
      "type": "function"
    },
    {
      "constant": false,
      "inputs": [],
      "name": "withdraw",
      "outputs": [],
      "payable": false,
      "stateMutability": "nonpayable",
      "type": "function"
    },
    {
      "constant": true,
      "inputs": [
        {
          "name": "user",
          "type": "address"
        }
      ],
      "name": "balanceOf",
      "outputs": [
        {
          "name": "",
          "type": "uint256"
        }
      ],
      "payable": false,
      "stateMutability": "view",
      "type": "function"
    },
    {
      "constant": false,
      "inputs": [
        {
          "name": "_coinPrice",
          "type": "uint256"
        }
      ],
      "name": "setCoinPrice",
      "outputs": [],
      "payable": false,
      "stateMutability": "nonpayable",
      "type": "function"
    },
    {
      "constant": false,
      "inputs": [
        {
          "name": "_amount",
          "type": "uint256"
        }
      ],
      "name": "cashout",
      "outputs": [],
      "payable": false,
      "stateMutability": "nonpayable",
      "type": "function"
    }
  ],
  "bytecode": "0x608060405267016345785d8a000060015534801561001c57600080fd5b5033600260006101000a81548173ffffffffffffffffffffffffffffffffffffffff021916908373ffffffffffffffffffffffffffffffffffffffff1602179055506108108061006d6000396000f300608060405260043610610099576000357c0100000000000000000000000000000000000000000000000000000000900463ffffffff16806326e90775146100f75780633ccfd60b1461014c578063550b47b81461016357806370a0823114610190578063731bedd0146101e75780638b7afe2e1461023e578063a9e2bcfe14610269578063a9e732bb14610273578063ad0f2916146102a0575b3373ffffffffffffffffffffffffffffffffffffffff16600260009054906101000a900473ffffffffffffffffffffffffffffffffffffffff1673ffffffffffffffffffffffffffffffffffffffff161415156100f557600080fd5b005b34801561010357600080fd5b506101366004803603810190808035906020019092919080359060200190929190803590602001909291905050506102cb565b6040518082815260200191505060405180910390f35b34801561015857600080fd5b50610161610413565b005b34801561016f57600080fd5b5061018e600480360381019080803590602001909291905050506104e6565b005b34801561019c57600080fd5b506101d1600480360381019080803573ffffffffffffffffffffffffffffffffffffffff16906020019092919050505061054c565b6040518082815260200191505060405180910390f35b3480156101f357600080fd5b506101fc610595565b604051808273ffffffffffffffffffffffffffffffffffffffff1673ffffffffffffffffffffffffffffffffffffffff16815260200191505060405180910390f35b34801561024a57600080fd5b506102536105ba565b6040518082815260200191505060405180910390f35b6102716105d9565b005b34801561027f57600080fd5b5061029e600480360381019080803590602001909291905050506106f2565b005b3480156102ac57600080fd5b506102b5610798565b6040518082815260200191505060405180910390f35b60006005841480156102dd5750600583145b80156102e95750600582145b156102fb57601e60015402905061040c565b60068414801561030b5750600583145b80156103175750600682145b1561032957601460015402905061040c565b6004841480156103395750600483145b80156103455750600482145b1561035757600f60015402905061040c565b6003841480156103675750600383145b80156103735750600382145b1561038557600c60015402905061040c565b6002841480156103955750600283145b80156103a15750600282145b156103b357600a60015402905061040c565b6001841480156103c35750600183145b80156103cf5750600182145b156103e157600560015402905061040c565b828414806103ee57508184145b806103f857508183145b1561040757600154905061040c565b600090505b9392505050565b6000600360003373ffffffffffffffffffffffffffffffffffffffff1673ffffffffffffffffffffffffffffffffffffffff1681526020019081526020016000205490506000600360003373ffffffffffffffffffffffffffffffffffffffff1673ffffffffffffffffffffffffffffffffffffffff168152602001908152602001600020819055503373ffffffffffffffffffffffffffffffffffffffff166108fc829081150290604051600060405180830381858888f193505050501580156104e2573d6000803e3d6000fd5b5050565b3373ffffffffffffffffffffffffffffffffffffffff16600260009054906101000a900473ffffffffffffffffffffffffffffffffffffffff1673ffffffffffffffffffffffffffffffffffffffff1614151561054257600080fd5b8060018190555050565b6000600360008373ffffffffffffffffffffffffffffffffffffffff1673ffffffffffffffffffffffffffffffffffffffff168152602001908152602001600020549050919050565b6000809054906101000a900473ffffffffffffffffffffffffffffffffffffffff1681565b60003073ffffffffffffffffffffffffffffffffffffffff1631905090565b60008060008060015434101515156105f057600080fd5b6105f93461079e565b9350610607600a340161079e565b92506106156014340161079e565b91506106228484846102cb565b90507f0d5c4756b6fa55030838b26a5949ffb7780d2ddb43de720b9cbc14fb3937906f33858585604051808573ffffffffffffffffffffffffffffffffffffffff1673ffffffffffffffffffffffffffffffffffffffff16815260200184815260200183815260200182815260200194505050505060405180910390a180600360003373ffffffffffffffffffffffffffffffffffffffff1673ffffffffffffffffffffffffffffffffffffffff1681526020019081526020016000206000828254019250508190555050505050565b3373ffffffffffffffffffffffffffffffffffffffff16600260009054906101000a900473ffffffffffffffffffffffffffffffffffffffff1673ffffffffffffffffffffffffffffffffffffffff1614151561074e57600080fd5b3373ffffffffffffffffffffffffffffffffffffffff166108fc829081150290604051600060405180830381858888f19350505050158015610794573d6000803e3d6000fd5b5050565b60015481565b600060016006600143034084604051808360001916600019168152602001828152602001925050506040518091039020600190048115156107db57fe5b060190509190505600a165627a7a723058208f86ab4b37bba74cc953ff5c3f140c42fb730eb3641ee4d501a04ec55921d2520029",
  "source": "pragma solidity ^0.4.18;\n\ncontract SlotMachine {\n\n    address public slotMachineFunds;//\n\n    uint256 public coinPrice = 0.1 ether;\n\n    address owner;\n\n    event Rolled(address sender, uint rand1, uint rand2, uint rand3);\n\n    mapping (address => uint) pendingWithdrawals;\n\n    modifier onlyOwner() {\n        require(owner == msg.sender);\n        _;\n    }\n\n    function SlotMachine() {\n        owner = msg.sender;\n    }\n\n    //the user plays one roll of the machine putting in money for the win\n    function oneRoll() payable {\n        require(msg.value >= coinPrice);\n\n        uint rand1 = randomGen(msg.value);\n        uint rand2 = randomGen(msg.value + 10);\n        uint rand3 = randomGen(msg.value + 20);\n\n        uint result = calculatePrize(rand1, rand2, rand3);\n\n        Rolled(msg.sender, rand1, rand2, rand3);\n\n        pendingWithdrawals[msg.sender] += result;\n        \n    }\n    \n    function contractBalance() constant returns(uint) {\n        return this.balance;\n    }\n\n    function calculatePrize(uint rand1, uint rand2, uint rand3) constant returns(uint) {\n        if(rand1 == 5 && rand2 == 5 && rand3 == 5) {\n            return coinPrice * 30;\n        } else if (rand1 == 6 && rand2 == 5 && rand3 == 6) {\n            return coinPrice * 20;\n        } else if (rand1 == 4 && rand2 == 4 && rand3 == 4) {\n            return coinPrice * 15;\n        } else if (rand1 == 3 && rand2 == 3 && rand3 == 3) {\n            return coinPrice * 12;\n        } else if (rand1 == 2 && rand2 == 2 && rand3 == 2) {\n            return coinPrice * 10;\n        } else if (rand1 == 1 && rand2 == 1 && rand3 == 1) {\n            return coinPrice * 5;\n        } else if ((rand1 == rand2) || (rand1 == rand3) || (rand2 == rand3)) {\n            return coinPrice;\n        } else {\n            return 0;\n        }\n    }\n\n    function withdraw() {\n        uint amount = pendingWithdrawals[msg.sender];\n\n        pendingWithdrawals[msg.sender] = 0;\n\n        msg.sender.transfer(amount);\n    }\n\n    function balanceOf(address user) constant returns(uint) {\n        return pendingWithdrawals[user];\n    }\n\n    function setCoinPrice(uint _coinPrice) onlyOwner {\n        coinPrice = _coinPrice;\n    }\n\n    function() onlyOwner payable {\n    }\n\n    function cashout(uint _amount) onlyOwner {\n        msg.sender.transfer(_amount);\n    }\n\n    function randomGen(uint seed) private constant returns (uint randomNumber) {\n        return (uint(sha3(block.blockhash(block.number-1), seed )) % 6) + 1;\n    }\n\n}\n",
  "sourcePath": "D:/task108/solidity/slot-game-solidity-ethereum--master/contracts/SlotMachine.sol",
  "compiler": {
    "name": "solc",
    "version": "0.4.26+commit.4563c3fc.Emscripten.clang"
  },
  "schemaVersion": "3.3.1",
  "updatedAt": "2020-10-23T01:47:50.120Z",
  "networkType": "ethereum",
  "devdoc": {
    "methods": {}
  },
  "userdoc": {
    "methods": {}
  }
}